{
  "_format": "hh-sol-artifact-1",
  "contractName": "LitAgentWallet",
  "sourceName": "src/contracts/LitAgentWallet.sol",
  "abi": [
    {
      "inputs": [
        {
          "internalType": "address",
          "name": "_policy",
          "type": "address"
        }
      ],
      "stateMutability": "nonpayable",
      "type": "constructor"
    },
    {
      "anonymous": false,
      "inputs": [
        {
          "indexed": true,
          "internalType": "address",
          "name": "executor",
          "type": "address"
        },
        {
          "indexed": true,
          "internalType": "address",
          "name": "token",
          "type": "address"
        },
        {
          "indexed": true,
          "internalType": "address",
          "name": "recipient",
          "type": "address"
        },
        {
          "indexed": false,
          "internalType": "uint256",
          "name": "amount",
          "type": "uint256"
        },
        {
          "indexed": false,
          "internalType": "bytes32",
          "name": "toolId",
          "type": "bytes32"
        }
      ],
      "name": "TokenTransferExecuted",
      "type": "event"
    },
    {
      "anonymous": false,
      "inputs": [
        {
          "indexed": true,
          "internalType": "address",
          "name": "executor",
          "type": "address"
        },
        {
          "indexed": true,
          "internalType": "address",
          "name": "target",
          "type": "address"
        },
        {
          "indexed": false,
          "internalType": "uint256",
          "name": "value",
          "type": "uint256"
        },
        {
          "indexed": false,
          "internalType": "bytes",
          "name": "data",
          "type": "bytes"
        },
        {
          "indexed": true,
          "internalType": "bytes32",
          "name": "toolId",
          "type": "bytes32"
        }
      ],
      "name": "TransactionExecuted",
      "type": "event"
    },
    {
      "inputs": [
        {
          "internalType": "address[]",
          "name": "targets",
          "type": "address[]"
        },
        {
          "internalType": "uint256[]",
          "name": "values",
          "type": "uint256[]"
        },
        {
          "internalType": "bytes[]",
          "name": "datas",
          "type": "bytes[]"
        },
        {
          "internalType": "bytes32[]",
          "name": "toolIds",
          "type": "bytes32[]"
        }
      ],
      "name": "executeBatch",
      "outputs": [
        {
          "internalType": "bool[]",
          "name": "",
          "type": "bool[]"
        }
      ],
      "stateMutability": "nonpayable",
      "type": "function"
    },
    {
      "inputs": [
        {
          "internalType": "address",
          "name": "token",
          "type": "address"
        },
        {
          "internalType": "address",
          "name": "recipient",
          "type": "address"
        },
        {
          "internalType": "uint256",
          "name": "amount",
          "type": "uint256"
        },
        {
          "internalType": "bytes32",
          "name": "toolId",
          "type": "bytes32"
        }
      ],
      "name": "executeERC20Transfer",
      "outputs": [
        {
          "internalType": "bool",
          "name": "",
          "type": "bool"
        }
      ],
      "stateMutability": "nonpayable",
      "type": "function"
    },
    {
      "inputs": [
        {
          "internalType": "address",
          "name": "target",
          "type": "address"
        },
        {
          "internalType": "uint256",
          "name": "value",
          "type": "uint256"
        },
        {
          "internalType": "bytes",
          "name": "data",
          "type": "bytes"
        },
        {
          "internalType": "bytes32",
          "name": "toolId",
          "type": "bytes32"
        }
      ],
      "name": "executeTransaction",
      "outputs": [
        {
          "internalType": "bool",
          "name": "",
          "type": "bool"
        }
      ],
      "stateMutability": "nonpayable",
      "type": "function"
    },
    {
      "inputs": [
        {
          "internalType": "address",
          "name": "account",
          "type": "address"
        }
      ],
      "name": "getNonce",
      "outputs": [
        {
          "internalType": "uint256",
          "name": "",
          "type": "uint256"
        }
      ],
      "stateMutability": "view",
      "type": "function"
    },
    {
      "inputs": [
        {
          "internalType": "address",
          "name": "",
          "type": "address"
        }
      ],
      "name": "nonces",
      "outputs": [
        {
          "internalType": "uint256",
          "name": "",
          "type": "uint256"
        }
      ],
      "stateMutability": "view",
      "type": "function"
    },
    {
      "inputs": [],
      "name": "policy",
      "outputs": [
        {
          "internalType": "contract VirtualsPolicy",
          "name": "",
          "type": "address"
        }
      ],
      "stateMutability": "view",
      "type": "function"
    },
    {
      "stateMutability": "payable",
      "type": "receive"
    }
  ],
  "bytecode": "0x60806040523480156200001157600080fd5b5060405162001906380380620019068339818101604052810190620000379190620000f1565b600160008190555080600160006101000a81548173ffffffffffffffffffffffffffffffffffffffff021916908373ffffffffffffffffffffffffffffffffffffffff1602179055505062000123565b600080fd5b600073ffffffffffffffffffffffffffffffffffffffff82169050919050565b6000620000b9826200008c565b9050919050565b620000cb81620000ac565b8114620000d757600080fd5b50565b600081519050620000eb81620000c0565b92915050565b6000602082840312156200010a576200010962000087565b5b60006200011a84828501620000da565b91505092915050565b6117d380620001336000396000f3fe6080604052600436106100595760003560e01c80630505c8c9146100655780632d0335ab146100905780635fb2eba3146100cd57806366c20f1f1461010a5780637ecebe0014610147578063c9e271071461018457610060565b3661006057005b600080fd5b34801561007157600080fd5b5061007a6101c1565b6040516100879190610bb2565b60405180910390f35b34801561009c57600080fd5b506100b760048036038101906100b29190610c15565b6101e7565b6040516100c49190610c5b565b60405180910390f35b3480156100d957600080fd5b506100f460048036038101906100ef9190610d3d565b610230565b6040516101019190610de0565b60405180910390f35b34801561011657600080fd5b50610131600480360381019061012c9190610f53565b61045b565b60405161013e91906110fa565b60405180910390f35b34801561015357600080fd5b5061016e60048036038101906101699190610c15565b610877565b60405161017b9190610c5b565b60405180910390f35b34801561019057600080fd5b506101ab60048036038101906101a6919061111c565b61088f565b6040516101b89190610de0565b60405180910390f35b600160009054906101000a900473ffffffffffffffffffffffffffffffffffffffff1681565b6000600260008373ffffffffffffffffffffffffffffffffffffffff1673ffffffffffffffffffffffffffffffffffffffff168152602001908152602001600020549050919050565b600061023a610ada565b60006004858590501061024c57843590505b600160009054906101000a900473ffffffffffffffffffffffffffffffffffffffff1673ffffffffffffffffffffffffffffffffffffffff16639ca3870c3383896040518463ffffffff1660e01b81526004016102ab939291906111cd565b602060405180830381865afa1580156102c8573d6000803e3d6000fd5b505050506040513d601f19601f820116820180604052508101906102ec9190611230565b61032b576040517f08c379a0000000000000000000000000000000000000000000000000000000008152600401610322906112e0565b60405180910390fd5b60008773ffffffffffffffffffffffffffffffffffffffff1687878760405161035592919061133f565b60006040518083038185875af1925050503d8060008114610392576040519150601f19603f3d011682016040523d82523d6000602084013e610397565b606091505b50509050806103db576040517f08c379a00000000000000000000000000000000000000000000000000000000081526004016103d2906113a4565b60405180910390fd5b838873ffffffffffffffffffffffffffffffffffffffff163373ffffffffffffffffffffffffffffffffffffffff167e6c1e5c147721d86f8a64b12ba44f01db34ba84f4cb454f3cdfcba4f1bc88378a8a8a60405161043c93929190611413565b60405180910390a4600192505050610452610b29565b95945050505050565b6060610465610ada565b868690508989905014801561047f57508484905087879050145b801561049057508282905085859050145b6104cf576040517f08c379a00000000000000000000000000000000000000000000000000000000081526004016104c690611491565b60405180910390fd5b60008989905067ffffffffffffffff8111156104ee576104ed6114b1565b5b60405190808252806020026020018201604052801561051c5781602001602082028036833780820191505090505b50905060005b8a8a905081101561085e5760006004888884818110610544576105436114e0565b5b9050602002810190610556919061151e565b90501061056c5760208202880180358035925050505b600160009054906101000a900473ffffffffffffffffffffffffffffffffffffffff1673ffffffffffffffffffffffffffffffffffffffff16639ca3870c33838d8d878181106105bf576105be6114e0565b5b905060200201356040518463ffffffff1660e01b81526004016105e4939291906111cd565b602060405180830381865afa158015610601573d6000803e3d6000fd5b505050506040513d601f19601f820116820180604052508101906106259190611230565b610664576040517f08c379a000000000000000000000000000000000000000000000000000000000815260040161065b906112e0565b60405180910390fd5b60008c8c84818110610679576106786114e0565b5b905060200201602081019061068e9190610c15565b73ffffffffffffffffffffffffffffffffffffffff168b8b858181106106b7576106b66114e0565b5b905060200201358a8a868181106106d1576106d06114e0565b5b90506020028101906106e3919061151e565b6040516106f192919061133f565b60006040518083038185875af1925050503d806000811461072e576040519150601f19603f3d011682016040523d82523d6000602084013e610733565b606091505b505090508084848151811061074b5761074a6114e0565b5b602002602001019015159081151581525050801561084957868684818110610776576107756114e0565b5b905060200201358d8d858181106107905761078f6114e0565b5b90506020020160208101906107a59190610c15565b73ffffffffffffffffffffffffffffffffffffffff163373ffffffffffffffffffffffffffffffffffffffff167e6c1e5c147721d86f8a64b12ba44f01db34ba84f4cb454f3cdfcba4f1bc88378e8e88818110610805576108046114e0565b5b905060200201358d8d8981811061081f5761081e6114e0565b5b9050602002810190610831919061151e565b60405161084093929190611413565b60405180910390a45b50508080610856906115b0565b915050610522565b508091505061086b610b29565b98975050505050505050565b60026020528060005260406000206000915090505481565b6000610899610ada565b600063a9059cbb60e01b9050600160009054906101000a900473ffffffffffffffffffffffffffffffffffffffff1673ffffffffffffffffffffffffffffffffffffffff16639ca3870c3383876040518463ffffffff1660e01b8152600401610904939291906111cd565b602060405180830381865afa158015610921573d6000803e3d6000fd5b505050506040513d601f19601f820116820180604052508101906109459190611230565b610984576040517f08c379a000000000000000000000000000000000000000000000000000000000815260040161097b90611644565b60405180910390fd5b60008690508073ffffffffffffffffffffffffffffffffffffffff1663a9059cbb87876040518363ffffffff1660e01b81526004016109c4929190611664565b6020604051808303816000875af11580156109e3573d6000803e3d6000fd5b505050506040513d601f19601f82011682018060405250810190610a079190611230565b610a46576040517f08c379a0000000000000000000000000000000000000000000000000000000008152600401610a3d906116d9565b60405180910390fd5b8573ffffffffffffffffffffffffffffffffffffffff168773ffffffffffffffffffffffffffffffffffffffff163373ffffffffffffffffffffffffffffffffffffffff167fca8d9a83318d343f62d4b02ac31e99da505b162d1207c323d6f8547f80891b228888604051610abc929190611708565b60405180910390a4600192505050610ad2610b29565b949350505050565b600260005403610b1f576040517f08c379a0000000000000000000000000000000000000000000000000000000008152600401610b169061177d565b60405180910390fd5b6002600081905550565b6001600081905550565b600073ffffffffffffffffffffffffffffffffffffffff82169050919050565b6000819050919050565b6000610b78610b73610b6e84610b33565b610b53565b610b33565b9050919050565b6000610b8a82610b5d565b9050919050565b6000610b9c82610b7f565b9050919050565b610bac81610b91565b82525050565b6000602082019050610bc76000830184610ba3565b92915050565b600080fd5b600080fd5b6000610be282610b33565b9050919050565b610bf281610bd7565b8114610bfd57600080fd5b50565b600081359050610c0f81610be9565b92915050565b600060208284031215610c2b57610c2a610bcd565b5b6000610c3984828501610c00565b91505092915050565b6000819050919050565b610c5581610c42565b82525050565b6000602082019050610c706000830184610c4c565b92915050565b610c7f81610c42565b8114610c8a57600080fd5b50565b600081359050610c9c81610c76565b92915050565b600080fd5b600080fd5b600080fd5b60008083601f840112610cc757610cc6610ca2565b5b8235905067ffffffffffffffff811115610ce457610ce3610ca7565b5b602083019150836001820283011115610d0057610cff610cac565b5b9250929050565b6000819050919050565b610d1a81610d07565b8114610d2557600080fd5b50565b600081359050610d3781610d11565b92915050565b600080600080600060808688031215610d5957610d58610bcd565b5b6000610d6788828901610c00565b9550506020610d7888828901610c8d565b945050604086013567ffffffffffffffff811115610d9957610d98610bd2565b5b610da588828901610cb1565b93509350506060610db888828901610d28565b9150509295509295909350565b60008115159050919050565b610dda81610dc5565b82525050565b6000602082019050610df56000830184610dd1565b92915050565b60008083601f840112610e1157610e10610ca2565b5b8235905067ffffffffffffffff811115610e2e57610e2d610ca7565b5b602083019150836020820283011115610e4a57610e49610cac565b5b9250929050565b60008083601f840112610e6757610e66610ca2565b5b8235905067ffffffffffffffff811115610e8457610e83610ca7565b5b602083019150836020820283011115610ea057610e9f610cac565b5b9250929050565b60008083601f840112610ebd57610ebc610ca2565b5b8235905067ffffffffffffffff811115610eda57610ed9610ca7565b5b602083019150836020820283011115610ef657610ef5610cac565b5b9250929050565b60008083601f840112610f1357610f12610ca2565b5b8235905067ffffffffffffffff811115610f3057610f2f610ca7565b5b602083019150836020820283011115610f4c57610f4b610cac565b5b9250929050565b6000806000806000806000806080898b031215610f7357610f72610bcd565b5b600089013567ffffffffffffffff811115610f9157610f90610bd2565b5b610f9d8b828c01610dfb565b9850985050602089013567ffffffffffffffff811115610fc057610fbf610bd2565b5b610fcc8b828c01610e51565b9650965050604089013567ffffffffffffffff811115610fef57610fee610bd2565b5b610ffb8b828c01610ea7565b9450945050606089013567ffffffffffffffff81111561101e5761101d610bd2565b5b61102a8b828c01610efd565b92509250509295985092959890939650565b600081519050919050565b600082825260208201905092915050565b6000819050602082019050919050565b61107181610dc5565b82525050565b60006110838383611068565b60208301905092915050565b6000602082019050919050565b60006110a78261103c565b6110b18185611047565b93506110bc83611058565b8060005b838110156110ed5781516110d48882611077565b97506110df8361108f565b9250506001810190506110c0565b5085935050505092915050565b60006020820190508181036000830152611114818461109c565b905092915050565b6000806000806080858703121561113657611135610bcd565b5b600061114487828801610c00565b945050602061115587828801610c00565b935050604061116687828801610c8d565b925050606061117787828801610d28565b91505092959194509250565b61118c81610bd7565b82525050565b60007fffffffff0000000000000000000000000000000000000000000000000000000082169050919050565b6111c781611192565b82525050565b60006060820190506111e26000830186611183565b6111ef60208301856111be565b6111fc6040830184610c4c565b949350505050565b61120d81610dc5565b811461121857600080fd5b50565b60008151905061122a81611204565b92915050565b60006020828403121561124657611245610bcd565b5b60006112548482850161121b565b91505092915050565b600082825260208201905092915050565b7f5472616e73616374696f6e206e6f7420616c6c6f77656420627920706f6c696360008201527f7900000000000000000000000000000000000000000000000000000000000000602082015250565b60006112ca60218361125d565b91506112d58261126e565b604082019050919050565b600060208201905081810360008301526112f9816112bd565b9050919050565b600081905092915050565b82818337600083830152505050565b60006113268385611300565b935061133383858461130b565b82840190509392505050565b600061134c82848661131a565b91508190509392505050565b7f5472616e73616374696f6e206661696c65640000000000000000000000000000600082015250565b600061138e60128361125d565b915061139982611358565b602082019050919050565b600060208201905081810360008301526113bd81611381565b9050919050565b600082825260208201905092915050565b6000601f19601f8301169050919050565b60006113f283856113c4565b93506113ff83858461130b565b611408836113d5565b840190509392505050565b60006040820190506114286000830186610c4c565b818103602083015261143b8184866113e6565b9050949350505050565b7f4172726179206c656e67746873206d757374206d617463680000000000000000600082015250565b600061147b60188361125d565b915061148682611445565b602082019050919050565b600060208201905081810360008301526114aa8161146e565b9050919050565b7f4e487b7100000000000000000000000000000000000000000000000000000000600052604160045260246000fd5b7f4e487b7100000000000000000000000000000000000000000000000000000000600052603260045260246000fd5b600080fd5b600080fd5b600080fd5b6000808335600160200384360303811261153b5761153a61150f565b5b80840192508235915067ffffffffffffffff82111561155d5761155c611514565b5b60208301925060018202360383131561157957611578611519565b5b509250929050565b7f4e487b7100000000000000000000000000000000000000000000000000000000600052601160045260246000fd5b60006115bb82610c42565b91507fffffffffffffffffffffffffffffffffffffffffffffffffffffffffffffffff82036115ed576115ec611581565b5b600182019050919050565b7f5472616e73666572206e6f7420616c6c6f77656420627920706f6c6963790000600082015250565b600061162e601e8361125d565b9150611639826115f8565b602082019050919050565b6000602082019050818103600083015261165d81611621565b9050919050565b60006040820190506116796000830185611183565b6116866020830184610c4c565b9392505050565b7f5472616e73666572206661696c65640000000000000000000000000000000000600082015250565b60006116c3600f8361125d565b91506116ce8261168d565b602082019050919050565b600060208201905081810360008301526116f2816116b6565b9050919050565b61170281610d07565b82525050565b600060408201905061171d6000830185610c4c565b61172a60208301846116f9565b9392505050565b7f5265656e7472616e637947756172643a207265656e7472616e742063616c6c00600082015250565b6000611767601f8361125d565b915061177282611731565b602082019050919050565b600060208201905081810360008301526117968161175a565b905091905056fea26469706673582212209779c05c7f401e4419158466af65f221c28fc5562db64883d7d5cb0cf48cc5ec64736f6c63430008140033",
  "linkReferences": {},
  "deployedLinkReferences": {}
}