{
  "_format": "hh-sol-artifact-1",
  "contractName": "VirtualsPolicy",
  "sourceName": "src/contracts/VirtualsPolicy.sol",
  "abi": [
    {
      "inputs": [
        {
          "internalType": "address",
          "name": "_governanceToken",
          "type": "address"
        },
        {
          "internalType": "address",
          "name": "initialOwner",
          "type": "address"
        }
      ],
      "stateMutability": "nonpayable",
      "type": "constructor"
    },
    {
      "anonymous": false,
      "inputs": [
        {
          "indexed": false,
          "internalType": "address",
          "name": "admin",
          "type": "address"
        }
      ],
      "name": "AdminAdded",
      "type": "event"
    },
    {
      "anonymous": false,
      "inputs": [
        {
          "indexed": false,
          "internalType": "address",
          "name": "admin",
          "type": "address"
        }
      ],
      "name": "AdminRemoved",
      "type": "event"
    },
    {
      "anonymous": false,
      "inputs": [
        {
          "indexed": false,
          "internalType": "address",
          "name": "delegatee",
          "type": "address"
        },
        {
          "indexed": false,
          "internalType": "bool",
          "name": "status",
          "type": "bool"
        }
      ],
      "name": "DelegateeStatusChanged",
      "type": "event"
    },
    {
      "anonymous": false,
      "inputs": [
        {
          "indexed": false,
          "internalType": "bytes4",
          "name": "functionSig",
          "type": "bytes4"
        },
        {
          "indexed": false,
          "internalType": "bool",
          "name": "status",
          "type": "bool"
        }
      ],
      "name": "FunctionStatusChanged",
      "type": "event"
    },
    {
      "anonymous": false,
      "inputs": [
        {
          "indexed": false,
          "internalType": "uint256",
          "name": "newAmount",
          "type": "uint256"
        }
      ],
      "name": "MaxTransactionAmountChanged",
      "type": "event"
    },
    {
      "anonymous": false,
      "inputs": [
        {
          "indexed": true,
          "internalType": "address",
          "name": "previousOwner",
          "type": "address"
        },
        {
          "indexed": true,
          "internalType": "address",
          "name": "newOwner",
          "type": "address"
        }
      ],
      "name": "OwnershipTransferred",
      "type": "event"
    },
    {
      "anonymous": false,
      "inputs": [
        {
          "indexed": false,
          "internalType": "address",
          "name": "account",
          "type": "address"
        }
      ],
      "name": "Paused",
      "type": "event"
    },
    {
      "anonymous": false,
      "inputs": [
        {
          "indexed": false,
          "internalType": "bytes32",
          "name": "proposalId",
          "type": "bytes32"
        },
        {
          "indexed": false,
          "internalType": "address",
          "name": "approver",
          "type": "address"
        }
      ],
      "name": "ProposalApproved",
      "type": "event"
    },
    {
      "anonymous": false,
      "inputs": [
        {
          "indexed": false,
          "internalType": "bytes32",
          "name": "proposalId",
          "type": "bytes32"
        },
        {
          "indexed": false,
          "internalType": "address",
          "name": "proposer",
          "type": "address"
        }
      ],
      "name": "ProposalCreated",
      "type": "event"
    },
    {
      "anonymous": false,
      "inputs": [
        {
          "indexed": false,
          "internalType": "bytes32",
          "name": "proposalId",
          "type": "bytes32"
        }
      ],
      "name": "ProposalExecuted",
      "type": "event"
    },
    {
      "anonymous": false,
      "inputs": [
        {
          "indexed": false,
          "internalType": "address",
          "name": "account",
          "type": "address"
        }
      ],
      "name": "Unpaused",
      "type": "event"
    },
    {
      "inputs": [],
      "name": "ADMIN_THRESHOLD",
      "outputs": [
        {
          "internalType": "uint256",
          "name": "",
          "type": "uint256"
        }
      ],
      "stateMutability": "view",
      "type": "function"
    },
    {
      "inputs": [
        {
          "internalType": "bytes4",
          "name": "",
          "type": "bytes4"
        }
      ],
      "name": "allowedFunctions",
      "outputs": [
        {
          "internalType": "bool",
          "name": "",
          "type": "bool"
        }
      ],
      "stateMutability": "view",
      "type": "function"
    },
    {
      "inputs": [
        {
          "internalType": "bytes32",
          "name": "proposalId",
          "type": "bytes32"
        }
      ],
      "name": "approveProposal",
      "outputs": [],
      "stateMutability": "nonpayable",
      "type": "function"
    },
    {
      "inputs": [
        {
          "internalType": "address",
          "name": "",
          "type": "address"
        }
      ],
      "name": "approvedDelegatees",
      "outputs": [
        {
          "internalType": "bool",
          "name": "",
          "type": "bool"
        }
      ],
      "stateMutability": "view",
      "type": "function"
    },
    {
      "inputs": [
        {
          "internalType": "address",
          "name": "executor",
          "type": "address"
        },
        {
          "internalType": "bytes4",
          "name": "functionSig",
          "type": "bytes4"
        },
        {
          "internalType": "uint256",
          "name": "amount",
          "type": "uint256"
        }
      ],
      "name": "canExecute",
      "outputs": [
        {
          "internalType": "bool",
          "name": "",
          "type": "bool"
        }
      ],
      "stateMutability": "view",
      "type": "function"
    },
    {
      "inputs": [
        {
          "internalType": "address",
          "name": "",
          "type": "address"
        }
      ],
      "name": "dailyLimits",
      "outputs": [
        {
          "internalType": "uint256",
          "name": "",
          "type": "uint256"
        }
      ],
      "stateMutability": "view",
      "type": "function"
    },
    {
      "inputs": [
        {
          "internalType": "address",
          "name": "",
          "type": "address"
        }
      ],
      "name": "dailySpent",
      "outputs": [
        {
          "internalType": "uint256",
          "name": "",
          "type": "uint256"
        }
      ],
      "stateMutability": "view",
      "type": "function"
    },
    {
      "inputs": [],
      "name": "governanceToken",
      "outputs": [
        {
          "internalType": "contract VirtualsToken",
          "name": "",
          "type": "address"
        }
      ],
      "stateMutability": "view",
      "type": "function"
    },
    {
      "inputs": [
        {
          "internalType": "address",
          "name": "",
          "type": "address"
        }
      ],
      "name": "lastResetTime",
      "outputs": [
        {
          "internalType": "uint256",
          "name": "",
          "type": "uint256"
        }
      ],
      "stateMutability": "view",
      "type": "function"
    },
    {
      "inputs": [],
      "name": "maxTransactionAmount",
      "outputs": [
        {
          "internalType": "uint256",
          "name": "",
          "type": "uint256"
        }
      ],
      "stateMutability": "view",
      "type": "function"
    },
    {
      "inputs": [],
      "name": "owner",
      "outputs": [
        {
          "internalType": "address",
          "name": "",
          "type": "address"
        }
      ],
      "stateMutability": "view",
      "type": "function"
    },
    {
      "inputs": [],
      "name": "pause",
      "outputs": [],
      "stateMutability": "nonpayable",
      "type": "function"
    },
    {
      "inputs": [],
      "name": "paused",
      "outputs": [
        {
          "internalType": "bool",
          "name": "",
          "type": "bool"
        }
      ],
      "stateMutability": "view",
      "type": "function"
    },
    {
      "inputs": [],
      "name": "proposalTimeout",
      "outputs": [
        {
          "internalType": "uint256",
          "name": "",
          "type": "uint256"
        }
      ],
      "stateMutability": "view",
      "type": "function"
    },
    {
      "inputs": [
        {
          "internalType": "bytes32",
          "name": "",
          "type": "bytes32"
        }
      ],
      "name": "proposals",
      "outputs": [
        {
          "internalType": "bytes32",
          "name": "id",
          "type": "bytes32"
        },
        {
          "internalType": "address",
          "name": "proposer",
          "type": "address"
        },
        {
          "internalType": "uint256",
          "name": "timestamp",
          "type": "uint256"
        },
        {
          "internalType": "uint256",
          "name": "approvals",
          "type": "uint256"
        },
        {
          "internalType": "bool",
          "name": "executed",
          "type": "bool"
        },
        {
          "internalType": "bytes",
          "name": "data",
          "type": "bytes"
        }
      ],
      "stateMutability": "view",
      "type": "function"
    },
    {
      "inputs": [
        {
          "internalType": "address",
          "name": "newAdmin",
          "type": "address"
        }
      ],
      "name": "proposeAddAdmin",
      "outputs": [],
      "stateMutability": "nonpayable",
      "type": "function"
    },
    {
      "inputs": [
        {
          "internalType": "bytes4",
          "name": "functionSig",
          "type": "bytes4"
        },
        {
          "internalType": "bool",
          "name": "status",
          "type": "bool"
        }
      ],
      "name": "proposeAllowedFunction",
      "outputs": [],
      "stateMutability": "nonpayable",
      "type": "function"
    },
    {
      "inputs": [
        {
          "internalType": "address",
          "name": "delegatee",
          "type": "address"
        },
        {
          "internalType": "bool",
          "name": "status",
          "type": "bool"
        }
      ],
      "name": "proposeDelegateeStatus",
      "outputs": [],
      "stateMutability": "nonpayable",
      "type": "function"
    },
    {
      "inputs": [
        {
          "internalType": "uint256",
          "name": "amount",
          "type": "uint256"
        }
      ],
      "name": "proposeMaxTransactionAmount",
      "outputs": [],
      "stateMutability": "nonpayable",
      "type": "function"
    },
    {
      "inputs": [
        {
          "internalType": "address",
          "name": "admin",
          "type": "address"
        }
      ],
      "name": "proposeRemoveAdmin",
      "outputs": [],
      "stateMutability": "nonpayable",
      "type": "function"
    },
    {
      "inputs": [],
      "name": "renounceOwnership",
      "outputs": [],
      "stateMutability": "nonpayable",
      "type": "function"
    },
    {
      "inputs": [
        {
          "internalType": "address",
          "name": "newOwner",
          "type": "address"
        }
      ],
      "name": "transferOwnership",
      "outputs": [],
      "stateMutability": "nonpayable",
      "type": "function"
    },
    {
      "inputs": [],
      "name": "unpause",
      "outputs": [],
      "stateMutability": "nonpayable",
      "type": "function"
    }
  ],
  "bytecode": "0x6080604052620151806008553480156200001857600080fd5b506040516200309d3803806200309d83398181016040528101906200003e919062000350565b6200005e62000052620000f260201b60201c565b620000fa60201b60201c565b60008060146101000a81548160ff02191690831515021790555081600160006101000a81548173ffffffffffffffffffffffffffffffffffffffff021916908373ffffffffffffffffffffffffffffffffffffffff160217905550670de0b6b3a7640000600781905550620000d981620000fa60201b60201c565b620000ea81620001be60201b60201c565b5050620003c5565b600033905090565b60008060009054906101000a900473ffffffffffffffffffffffffffffffffffffffff169050816000806101000a81548173ffffffffffffffffffffffffffffffffffffffff021916908373ffffffffffffffffffffffffffffffffffffffff1602179055508173ffffffffffffffffffffffffffffffffffffffff168173ffffffffffffffffffffffffffffffffffffffff167f8be0079c531659141344cd1fd0a4f28419497f9722a3daafe3b4186f6b6457e060405160405180910390a35050565b620001d48160096200021160201b90919060201c565b507f44d6d25963f097ad14f29f06854a01f575648a1ef82f30e562ccd3889717e33981604051620002069190620003a8565b60405180910390a150565b600062000241836000018373ffffffffffffffffffffffffffffffffffffffff1660001b6200024960201b60201c565b905092915050565b60006200025d8383620002c360201b60201c565b620002b8578260000182908060018154018082558091505060019003906000526020600020016000909190919091505582600001805490508360010160008481526020019081526020016000208190555060019050620002bd565b600090505b92915050565b600080836001016000848152602001908152602001600020541415905092915050565b600080fd5b600073ffffffffffffffffffffffffffffffffffffffff82169050919050565b60006200031882620002eb565b9050919050565b6200032a816200030b565b81146200033657600080fd5b50565b6000815190506200034a816200031f565b92915050565b600080604083850312156200036a5762000369620002e6565b5b60006200037a8582860162000339565b92505060206200038d8582860162000339565b9150509250929050565b620003a2816200030b565b82525050565b6000602082019050620003bf600083018462000397565b92915050565b612cc880620003d56000396000f3fe608060405234801561001057600080fd5b506004361061014d5760003560e01c80638da5cb5b116100c3578063d7bffc921161007c578063d7bffc9214610357578063da68695b14610387578063f20b5b2c146103b7578063f2fde38b146103d3578063f96dae0a146103ef578063ffc8ada61461040d5761014d565b80638da5cb5b146102975780639ca3870c146102b5578063c00c0740146102e5578063c8c8ebe414610301578063ce28c0231461031f578063cffb80c11461033b5761014d565b80635c975abb116101155780635c975abb146101e9578063649f3df214610207578063715018a614610237578063749511b1146102415780637780f6c81461025d5780638456cb591461028d5761014d565b806332ed5b121461015257806336b6643a146101875780633782339e146101a55780633f4ba83a146101c35780635740cd6f146101cd575b600080fd5b61016c60048036038101906101679190611a41565b61043d565b60405161017e96959493929190611b82565b60405180910390f35b61018f61052e565b60405161019c9190611bea565b60405180910390f35b6101ad610534565b6040516101ba9190611bea565b60405180910390f35b6101cb610539565b005b6101e760048036038101906101e29190611c5d565b610596565b005b6101f1610648565b6040516101fe9190611c9d565b60405180910390f35b610221600480360381019061021c9190611d10565b61065e565b60405161022e9190611c9d565b60405180910390f35b61023f61067e565b005b61025b60048036038101906102569190611d3d565b610692565b005b61027760048036038101906102729190611d3d565b61073f565b6040516102849190611bea565b60405180910390f35b610295610757565b005b61029f6107b4565b6040516102ac9190611d6a565b60405180910390f35b6102cf60048036038101906102ca9190611db1565b6107dd565b6040516102dc9190611c9d565b60405180910390f35b6102ff60048036038101906102fa9190611e04565b610ae4565b005b610309610b96565b6040516103169190611bea565b60405180910390f35b61033960048036038101906103349190611e44565b610b9c565b005b61035560048036038101906103509190611d3d565b610c49565b005b610371600480360381019061036c9190611d3d565b610d42565b60405161037e9190611bea565b60405180910390f35b6103a1600480360381019061039c9190611d3d565b610d5a565b6040516103ae9190611c9d565b60405180910390f35b6103d160048036038101906103cc9190611a41565b610d7a565b005b6103ed60048036038101906103e89190611d3d565b610fe2565b005b6103f7611065565b6040516104049190611ed0565b60405180910390f35b61042760048036038101906104229190611d3d565b61108b565b6040516104349190611bea565b60405180910390f35b600d6020528060005260406000206000915090508060000154908060010160009054906101000a900473ffffffffffffffffffffffffffffffffffffffff16908060020154908060030154908060040160009054906101000a900460ff16908060050180546104ab90611f1a565b80601f01602080910402602001604051908101604052809291908181526020018280546104d790611f1a565b80156105245780601f106104f957610100808354040283529160200191610524565b820191906000526020600020905b81548152906001019060200180831161050757829003601f168201915b5050505050905086565b60085481565b600281565b61054d3360096110a390919063ffffffff16565b61058c576040517f08c379a000000000000000000000000000000000000000000000000000000000815260040161058390611fa8565b60405180910390fd5b6105946110d3565b565b6105aa3360096110a390919063ffffffff16565b6105e9576040517f08c379a00000000000000000000000000000000000000000000000000000000081526004016105e090611fa8565b60405180910390fd5b6000828242604051602001610600939291906120d0565b60405160208183030381529060405280519060200120905061064381848460405160200161062f929190612118565b604051602081830303815290604052611135565b505050565b60008060149054906101000a900460ff16905090565b60036020528060005260406000206000915054906101000a900460ff1681565b6106866112be565b610690600061133c565b565b6106a63360096110a390919063ffffffff16565b6106e5576040517f08c379a00000000000000000000000000000000000000000000000000000000081526004016106dc90611fa8565b60405180910390fd5b600081426040516020016106fa92919061218d565b60405160208183030381529060405280519060200120905061073b818360405160200161072791906121c4565b604051602081830303815290604052611135565b5050565b60066020528060005260406000206000915090505481565b61076b3360096110a390919063ffffffff16565b6107aa576040517f08c379a00000000000000000000000000000000000000000000000000000000081526004016107a190611fa8565b60405180910390fd5b6107b2611400565b565b60008060009054906101000a900473ffffffffffffffffffffffffffffffffffffffff16905090565b60006107e7611463565b600260008573ffffffffffffffffffffffffffffffffffffffff1673ffffffffffffffffffffffffffffffffffffffff16815260200190815260200160002060009054906101000a900460ff166108415760009050610add565b60036000847bffffffffffffffffffffffffffffffffffffffffffffffffffffffff19167bffffffffffffffffffffffffffffffffffffffffffffffffffffffff1916815260200190815260200160002060009054906101000a900460ff166108ad5760009050610add565b6007548211156108c05760009050610add565b600062015180426108d1919061223d565b9050600062015180600660008873ffffffffffffffffffffffffffffffffffffffff1673ffffffffffffffffffffffffffffffffffffffff16815260200190815260200160002054610923919061223d565b90508082111561098457600460008773ffffffffffffffffffffffffffffffffffffffff1673ffffffffffffffffffffffffffffffffffffffff1681526020019081526020016000205484111561097f57600092505050610add565b610a21565b600460008773ffffffffffffffffffffffffffffffffffffffff1673ffffffffffffffffffffffffffffffffffffffff1681526020019081526020016000205484600560008973ffffffffffffffffffffffffffffffffffffffff1673ffffffffffffffffffffffffffffffffffffffff16815260200190815260200160002054610a0f919061226e565b1115610a2057600092505050610add565b5b6000600160009054906101000a900473ffffffffffffffffffffffffffffffffffffffff1673ffffffffffffffffffffffffffffffffffffffff16639ab24eb0886040518263ffffffff1660e01b8152600401610a7e9190611d6a565b602060405180830381865afa158015610a9b573d6000803e3d6000fd5b505050506040513d601f19601f82011682018060405250810190610abf91906122b7565b905060008103610ad55760009350505050610add565b600193505050505b9392505050565b610af83360096110a390919063ffffffff16565b610b37576040517f08c379a0000000000000000000000000000000000000000000000000000000008152600401610b2e90611fa8565b60405180910390fd5b6000828242604051602001610b4e93929190612351565b604051602081830303815290604052805190602001209050610b91818484604051602001610b7d9291906123a8565b604051602081830303815290604052611135565b505050565b60075481565b610bb03360096110a390919063ffffffff16565b610bef576040517f08c379a0000000000000000000000000000000000000000000000000000000008152600401610be690611fa8565b60405180910390fd5b60008142604051602001610c0492919061241d565b604051602081830303815290604052805190602001209050610c458183604051602001610c319190611bea565b604051602081830303815290604052611135565b5050565b610c5d3360096110a390919063ffffffff16565b610c9c576040517f08c379a0000000000000000000000000000000000000000000000000000000008152600401610c9390611fa8565b60405180910390fd5b6002610ca860096114ad565b11610ce8576040517f08c379a0000000000000000000000000000000000000000000000000000000008152600401610cdf906124c6565b60405180910390fd5b60008142604051602001610cfd929190612532565b604051602081830303815290604052805190602001209050610d3e8183604051602001610d2a91906121c4565b604051602081830303815290604052611135565b5050565b60046020528060005260406000206000915090505481565b60026020528060005260406000206000915054906101000a900460ff1681565b610d8e3360096110a390919063ffffffff16565b610dcd576040517f08c379a0000000000000000000000000000000000000000000000000000000008152600401610dc490611fa8565b60405180910390fd5b6000600d600083815260200190815260200160002090508060060160003373ffffffffffffffffffffffffffffffffffffffff1673ffffffffffffffffffffffffffffffffffffffff16815260200190815260200160002060009054906101000a900460ff1615610e73576040517f08c379a0000000000000000000000000000000000000000000000000000000008152600401610e6a906125b5565b60405180910390fd5b8060040160009054906101000a900460ff1615610ec5576040517f08c379a0000000000000000000000000000000000000000000000000000000008152600401610ebc90612621565b60405180910390fd5b6008548160020154610ed7919061226e565b421115610f19576040517f08c379a0000000000000000000000000000000000000000000000000000000008152600401610f109061268d565b60405180910390fd5b60018160060160003373ffffffffffffffffffffffffffffffffffffffff1673ffffffffffffffffffffffffffffffffffffffff16815260200190815260200160002060006101000a81548160ff0219169083151502179055506001816003016000828254610f88919061226e565b925050819055507feb05169868501d8cd19ad54800ef0547fcc3820c5bc4ac68e5683e6456ce08e38233604051610fc09291906126ad565b60405180910390a16002816003015410610fde57610fdd826114c2565b5b5050565b610fea6112be565b600073ffffffffffffffffffffffffffffffffffffffff168173ffffffffffffffffffffffffffffffffffffffff1603611059576040517f08c379a000000000000000000000000000000000000000000000000000000000815260040161105090612748565b60405180910390fd5b6110628161133c565b50565b600160009054906101000a900473ffffffffffffffffffffffffffffffffffffffff1681565b60056020528060005260406000206000915090505481565b60006110cb836000018373ffffffffffffffffffffffffffffffffffffffff1660001b611709565b905092915050565b6110db61172c565b60008060146101000a81548160ff0219169083151502179055507f5db9ee0a495bf2e6ff9c91a7834c1ba4fdd244a5e8aa4e537bd38aeae4b073aa61111e611775565b60405161112b9190611d6a565b60405180910390a1565b61114982600b61177d90919063ffffffff16565b15611189576040517f08c379a0000000000000000000000000000000000000000000000000000000008152600401611180906127b4565b60405180910390fd5b6000600d60008481526020019081526020016000209050828160000181905550338160010160006101000a81548173ffffffffffffffffffffffffffffffffffffffff021916908373ffffffffffffffffffffffffffffffffffffffff1602179055504281600201819055508181600501908161120691906129a5565b5060018160060160003373ffffffffffffffffffffffffffffffffffffffff1673ffffffffffffffffffffffffffffffffffffffff16815260200190815260200160002060006101000a81548160ff0219169083151502179055506001816003018190555061127f83600b61179490919063ffffffff16565b507fe90bb18a6fc9203e3678a7f41e132910465e0fce1421609662d02c481fbfbcf883336040516112b19291906126ad565b60405180910390a1505050565b6112c6611775565b73ffffffffffffffffffffffffffffffffffffffff166112e46107b4565b73ffffffffffffffffffffffffffffffffffffffff161461133a576040517f08c379a000000000000000000000000000000000000000000000000000000000815260040161133190612ac3565b60405180910390fd5b565b60008060009054906101000a900473ffffffffffffffffffffffffffffffffffffffff169050816000806101000a81548173ffffffffffffffffffffffffffffffffffffffff021916908373ffffffffffffffffffffffffffffffffffffffff1602179055508173ffffffffffffffffffffffffffffffffffffffff168173ffffffffffffffffffffffffffffffffffffffff167f8be0079c531659141344cd1fd0a4f28419497f9722a3daafe3b4186f6b6457e060405160405180910390a35050565b611408611463565b6001600060146101000a81548160ff0219169083151502179055507f62e78cea01bee320cd4e420270b5ea74000d11b0c9f74754ebdbfc544b05a25861144c611775565b6040516114599190611d6a565b60405180910390a1565b61146b610648565b156114ab576040517f08c379a00000000000000000000000000000000000000000000000000000000081526004016114a290612b2f565b60405180910390fd5b565b60006114bb826000016117ab565b9050919050565b6000600d6000838152602001908152602001600020905060018160040160006101000a81548160ff02191690831515021790555061150a82600b6117bc90919063ffffffff16565b506000600867ffffffffffffffff811115611528576115276127d4565b5b6040519080825280601f01601f19166020018201604052801561155a5781602001600182028036833780820191505090505b509050600082600501805461156e90611f1a565b80601f016020809104026020016040519081016040528092919081815260200182805461159a90611f1a565b80156115e75780601f106115bc576101008083540402835291602001916115e7565b820191906000526020600020905b8154815290600101906020018083116115ca57829003601f168201915b5050505050905060208101516020830152818051906020012060405160200161160f90612b4f565b60405160208183030381529060405280519060200120036116425760006028820151905061163c816117d3565b506116cc565b818051906020012060405160200161165990612b64565b60405160208183030381529060405280519060200120036116cb5760006028820151905061169181600961182290919063ffffffff16565b507fa3b62bc36326052d97ea62d63c3d60308ed4c3ea8ac079dd8499f1e9c4f80c0f816040516116c19190611d6a565b60405180910390a1505b5b7f7b1bcf1ccf901a11589afff5504d59fd0a53780eed2a952adade0348985139e0846040516116fb9190612b79565b60405180910390a150505050565b600080836001016000848152602001908152602001600020541415905092915050565b611734610648565b611773576040517f08c379a000000000000000000000000000000000000000000000000000000000815260040161176a90612be0565b60405180910390fd5b565b600033905090565b600061178c8360000183611709565b905092915050565b60006117a38360000183611852565b905092915050565b600081600001805490509050919050565b60006117cb83600001836118c2565b905092915050565b6117e78160096119d690919063ffffffff16565b507f44d6d25963f097ad14f29f06854a01f575648a1ef82f30e562ccd3889717e339816040516118179190611d6a565b60405180910390a150565b600061184a836000018373ffffffffffffffffffffffffffffffffffffffff1660001b6118c2565b905092915050565b600061185e8383611709565b6118b75782600001829080600181540180825580915050600190039060005260206000200160009091909190915055826000018054905083600101600084815260200190815260200160002081905550600190506118bc565b600090505b92915050565b600080836001016000848152602001908152602001600020549050600081146119ca5760006001826118f49190612c00565b905060006001866000018054905061190c9190612c00565b905081811461197b57600086600001828154811061192d5761192c612c34565b5b906000526020600020015490508087600001848154811061195157611950612c34565b5b90600052602060002001819055508387600101600083815260200190815260200160002081905550505b8560000180548061198f5761198e612c63565b5b6001900381819060005260206000200160009055905585600101600086815260200190815260200160002060009055600193505050506119d0565b60009150505b92915050565b60006119fe836000018373ffffffffffffffffffffffffffffffffffffffff1660001b611852565b905092915050565b600080fd5b6000819050919050565b611a1e81611a0b565b8114611a2957600080fd5b50565b600081359050611a3b81611a15565b92915050565b600060208284031215611a5757611a56611a06565b5b6000611a6584828501611a2c565b91505092915050565b611a7781611a0b565b82525050565b600073ffffffffffffffffffffffffffffffffffffffff82169050919050565b6000611aa882611a7d565b9050919050565b611ab881611a9d565b82525050565b6000819050919050565b611ad181611abe565b82525050565b60008115159050919050565b611aec81611ad7565b82525050565b600081519050919050565b600082825260208201905092915050565b60005b83811015611b2c578082015181840152602081019050611b11565b60008484015250505050565b6000601f19601f8301169050919050565b6000611b5482611af2565b611b5e8185611afd565b9350611b6e818560208601611b0e565b611b7781611b38565b840191505092915050565b600060c082019050611b976000830189611a6e565b611ba46020830188611aaf565b611bb16040830187611ac8565b611bbe6060830186611ac8565b611bcb6080830185611ae3565b81810360a0830152611bdd8184611b49565b9050979650505050505050565b6000602082019050611bff6000830184611ac8565b92915050565b611c0e81611a9d565b8114611c1957600080fd5b50565b600081359050611c2b81611c05565b92915050565b611c3a81611ad7565b8114611c4557600080fd5b50565b600081359050611c5781611c31565b92915050565b60008060408385031215611c7457611c73611a06565b5b6000611c8285828601611c1c565b9250506020611c9385828601611c48565b9150509250929050565b6000602082019050611cb26000830184611ae3565b92915050565b60007fffffffff0000000000000000000000000000000000000000000000000000000082169050919050565b611ced81611cb8565b8114611cf857600080fd5b50565b600081359050611d0a81611ce4565b92915050565b600060208284031215611d2657611d25611a06565b5b6000611d3484828501611cfb565b91505092915050565b600060208284031215611d5357611d52611a06565b5b6000611d6184828501611c1c565b91505092915050565b6000602082019050611d7f6000830184611aaf565b92915050565b611d8e81611abe565b8114611d9957600080fd5b50565b600081359050611dab81611d85565b92915050565b600080600060608486031215611dca57611dc9611a06565b5b6000611dd886828701611c1c565b9350506020611de986828701611cfb565b9250506040611dfa86828701611d9c565b9150509250925092565b60008060408385031215611e1b57611e1a611a06565b5b6000611e2985828601611cfb565b9250506020611e3a85828601611c48565b9150509250929050565b600060208284031215611e5a57611e59611a06565b5b6000611e6884828501611d9c565b91505092915050565b6000819050919050565b6000611e96611e91611e8c84611a7d565b611e71565b611a7d565b9050919050565b6000611ea882611e7b565b9050919050565b6000611eba82611e9d565b9050919050565b611eca81611eaf565b82525050565b6000602082019050611ee56000830184611ec1565b92915050565b7f4e487b7100000000000000000000000000000000000000000000000000000000600052602260045260246000fd5b60006002820490506001821680611f3257607f821691505b602082108103611f4557611f44611eeb565b5b50919050565b600082825260208201905092915050565b7f4e6f7420616e2061646d696e0000000000000000000000000000000000000000600082015250565b6000611f92600c83611f4b565b9150611f9d82611f5c565b602082019050919050565b60006020820190508181036000830152611fc181611f85565b9050919050565b600081905092915050565b7f64656c6567617465650000000000000000000000000000000000000000000000600082015250565b6000612009600983611fc8565b915061201482611fd3565b600982019050919050565b60008160601b9050919050565b60006120378261201f565b9050919050565b60006120498261202c565b9050919050565b61206161205c82611a9d565b61203e565b82525050565b60008160f81b9050919050565b600061207f82612067565b9050919050565b600061209182612074565b9050919050565b6120a96120a482611ad7565b612086565b82525050565b6000819050919050565b6120ca6120c582611abe565b6120af565b82525050565b60006120db82611ffc565b91506120e78286612050565b6014820191506120f78285612098565b60018201915061210782846120b9565b602082019150819050949350505050565b600060408201905061212d6000830185611aaf565b61213a6020830184611ae3565b9392505050565b7f61646441646d696e000000000000000000000000000000000000000000000000600082015250565b6000612177600883611fc8565b915061218282612141565b600882019050919050565b60006121988261216a565b91506121a48285612050565b6014820191506121b482846120b9565b6020820191508190509392505050565b60006121d08284612050565b60148201915081905092915050565b7f4e487b7100000000000000000000000000000000000000000000000000000000600052601260045260246000fd5b7f4e487b7100000000000000000000000000000000000000000000000000000000600052601160045260246000fd5b600061224882611abe565b915061225383611abe565b925082612263576122626121df565b5b828204905092915050565b600061227982611abe565b915061228483611abe565b925082820190508082111561229c5761229b61220e565b5b92915050565b6000815190506122b181611d85565b92915050565b6000602082840312156122cd576122cc611a06565b5b60006122db848285016122a2565b91505092915050565b7f66756e6374696f6e000000000000000000000000000000000000000000000000600082015250565b600061231a600883611fc8565b9150612325826122e4565b600882019050919050565b6000819050919050565b61234b61234682611cb8565b612330565b82525050565b600061235c8261230d565b9150612368828661233a565b6004820191506123788285612098565b60018201915061238882846120b9565b602082019150819050949350505050565b6123a281611cb8565b82525050565b60006040820190506123bd6000830185612399565b6123ca6020830184611ae3565b9392505050565b7f6d6178416d6f756e740000000000000000000000000000000000000000000000600082015250565b6000612407600983611fc8565b9150612412826123d1565b600982019050919050565b6000612428826123fa565b915061243482856120b9565b60208201915061244482846120b9565b6020820191508190509392505050565b7f43616e6e6f742072656d6f76652061646d696e2062656c6f772074687265736860008201527f6f6c640000000000000000000000000000000000000000000000000000000000602082015250565b60006124b0602383611f4b565b91506124bb82612454565b604082019050919050565b600060208201905081810360008301526124df816124a3565b9050919050565b7f72656d6f766541646d696e000000000000000000000000000000000000000000600082015250565b600061251c600b83611fc8565b9150612527826124e6565b600b82019050919050565b600061253d8261250f565b91506125498285612050565b60148201915061255982846120b9565b6020820191508190509392505050565b7f416c726561647920617070726f76656400000000000000000000000000000000600082015250565b600061259f601083611f4b565b91506125aa82612569565b602082019050919050565b600060208201905081810360008301526125ce81612592565b9050919050565b7f416c726561647920657865637574656400000000000000000000000000000000600082015250565b600061260b601083611f4b565b9150612616826125d5565b602082019050919050565b6000602082019050818103600083015261263a816125fe565b9050919050565b7f50726f706f73616c206578706972656400000000000000000000000000000000600082015250565b6000612677601083611f4b565b915061268282612641565b602082019050919050565b600060208201905081810360008301526126a68161266a565b9050919050565b60006040820190506126c26000830185611a6e565b6126cf6020830184611aaf565b9392505050565b7f4f776e61626c653a206e6577206f776e657220697320746865207a65726f206160008201527f6464726573730000000000000000000000000000000000000000000000000000602082015250565b6000612732602683611f4b565b915061273d826126d6565b604082019050919050565b6000602082019050818103600083015261276181612725565b9050919050565b7f50726f706f73616c20616c726561647920657869737473000000000000000000600082015250565b600061279e601783611f4b565b91506127a982612768565b602082019050919050565b600060208201905081810360008301526127cd81612791565b9050919050565b7f4e487b7100000000000000000000000000000000000000000000000000000000600052604160045260246000fd5b60008190508160005260206000209050919050565b60006020601f8301049050919050565b600082821b905092915050565b6000600883026128657fffffffffffffffffffffffffffffffffffffffffffffffffffffffffffffffff82612828565b61286f8683612828565b95508019841693508086168417925050509392505050565b60006128a261289d61289884611abe565b611e71565b611abe565b9050919050565b6000819050919050565b6128bc83612887565b6128d06128c8826128a9565b848454612835565b825550505050565b600090565b6128e56128d8565b6128f08184846128b3565b505050565b5b81811015612914576129096000826128dd565b6001810190506128f6565b5050565b601f8211156129595761292a81612803565b61293384612818565b81016020851015612942578190505b61295661294e85612818565b8301826128f5565b50505b505050565b600082821c905092915050565b600061297c6000198460080261295e565b1980831691505092915050565b6000612995838361296b565b9150826002028217905092915050565b6129ae82611af2565b67ffffffffffffffff8111156129c7576129c66127d4565b5b6129d18254611f1a565b6129dc828285612918565b600060209050601f831160018114612a0f57600084156129fd578287015190505b612a078582612989565b865550612a6f565b601f198416612a1d86612803565b60005b82811015612a4557848901518255600182019150602085019450602081019050612a20565b86831015612a625784890151612a5e601f89168261296b565b8355505b6001600288020188555050505b505050505050565b7f4f776e61626c653a2063616c6c6572206973206e6f7420746865206f776e6572600082015250565b6000612aad602083611f4b565b9150612ab882612a77565b602082019050919050565b60006020820190508181036000830152612adc81612aa0565b9050919050565b7f5061757361626c653a2070617573656400000000000000000000000000000000600082015250565b6000612b19601083611f4b565b9150612b2482612ae3565b602082019050919050565b60006020820190508181036000830152612b4881612b0c565b9050919050565b6000612b5a8261216a565b9150819050919050565b6000612b6f8261250f565b9150819050919050565b6000602082019050612b8e6000830184611a6e565b92915050565b7f5061757361626c653a206e6f7420706175736564000000000000000000000000600082015250565b6000612bca601483611f4b565b9150612bd582612b94565b602082019050919050565b60006020820190508181036000830152612bf981612bbd565b9050919050565b6000612c0b82611abe565b9150612c1683611abe565b9250828203905081811115612c2e57612c2d61220e565b5b92915050565b7f4e487b7100000000000000000000000000000000000000000000000000000000600052603260045260246000fd5b7f4e487b7100000000000000000000000000000000000000000000000000000000600052603160045260246000fdfea2646970667358221220f8fd89967512e08e5d39479d706d18326bc23b387cf16b45551d012f4b9f86fc64736f6c63430008140033",
  "linkReferences": {},
  "deployedLinkReferences": {}
}